:020000020000FC
:0200000014C02A
:10002A0002E00EBF0FE50DBFA09AA19A0CD01030C6
:10003A00B1F016D008D0103091F033D07BD003D075
:10004A0035D097D0F7CF02E0A29AAA9864D0A298A6
:10005A0066D09A9B11E09A9910E065D00895FFCF77
:10006A000CEC09D00EE407D00FEF05D00FEF03D048
:10007A000FE501D008950F931F9318E0A29AAA984A
:10008A0000FF07C00AC006951A95C1F71F910F9184
:10009A0008952CD0A2982ED0F6CF21D0A29822D0A3
:1000AA00F2CF0CECE8DF04E4E6DF08950CECE3DFC2
:1000BA000EEBE1DF04D0302F02D0202F089518E094
:1000CA000027A29AAA980BD0A2981BD09A990894B2
:1000DA009A9B889407951BD01A9599F70895000062
:1000EA0000000895B0E0A5E122D00895B0E0A3E1B0
:1000FA001ED008950000000000000000000000006B
:10010A000895000000000000000000000895B0E01B
:10011A00A1E10DD00895B0E0ABEB09D00895B0E0AD
:10012A00A7E105D00895B0E0AFE901D0089511978D
:10013A00F1F708951F930F931FEF0FEFA5E01A959C
:10014A00F1F70A95E1F7AA95D1F70F910F91089562
:10015A001F930F9308E0110F10F4A99A01C0A998F0
:10016A00A89800000000A89A0A95A9F70F911F9174
:10017A0008950F931F9314E0422F032F440F07FF94
:10018A004E7F07FD4160000F1A95C1F71F910F912D
:10019A00532F5F7001D00895A8944F93445652F597
:1001AA0027FF32C027FD2BC00AE569E0A89400307A
:1001BA0039F04F93401B72F44F916A950A50F6CF6B
:1001CA0010ECC6DFF2E0E2E8E40FC895102D1F77C5
:1001DA00BFDF1EC04F91F2E0E2E8E60FC895102D8E
:1001EA00B7DF401BF2E0E2E8E40FC895102D1F7755
:1001FA00AFDF0EC019EFACDF4F914456D5CF1FEBDE
:10020A00A7DF4F912FD0D0CF1FEFA2DF4F91CCCFD6
:10021A0001D0089527FF03C027FD00C023D066E060
:10022A00659F0AE569E0A894003039F00F92001A38
:10023A003AF40F906A950A50F6CF10EC89DF11C094
:10024A000F9027FD07C0F2E0E2E8E60F6491162F4F
:10025A007FDF07C0F2E0ECE8E60F6491162F78DF43
:10026A0000C00895A52FB42F11976FEFA6276FEF3F
:10027A00B6275A2F4B2F0895C0F9A4B0999282F845
:0C028A0080909080F8829299B0A4F9C096
:00000001FF
