:020000020000FC
:0200000014C02A
:020010007BC0B3
:10002A0002E00EBF0FE50DBFA19AA09A03E00EBD34
:10003A0000270DBD0CBD04E009BF8FEF7FEF6FEF06
:10004A005FEF00EF07BBBB9AC39A31E021E000E003
:10005A00C39811D2C39A65D097D07894E1D1003071
:10006A0009F012D0FBCF1F930F9308E0110F10F481
:10007A00A99A01C0A998A89800000000A89A0A9510
:10008A00A9F70F911F910895F894C398F4D1C39AD0
:10009A000C3099F00B30A1F00A30A9F00930B1F018
:1000AA000830B9F00730C1F00630C9F00430D1F099
:1000BA000330D9F00130E1F01EC02AD165D01BC04F
:1000CA00E7D062D018C090D05FD015C097D15CD06D
:1000DA0012C076D159D00FC082D156D00CC06AD185
:1000EA0053D009C061D150D006C019D04DD003C039
:1000FA0014D04AD000C000E09298789408955CD059
:10010A0018951F932F9324E0203021F02A951FEF92
:10011A00AADFFACF2F911F910895330F08953695CC
:10012A0008951F93182F9FDF172F9DDF162F9BDF30
:10013A00152F99DF1F910895182F95DF172F93DF39
:10014A00162F91DF4327142F8EDF0895182F8BDF88
:10015A00172F89DF4327142F86DF152F84DF089591
:10016A00182F81DF4327142F7EDF162F7CDF152FF0
:10017A007ADF08954327142F76DF172F74DF162F9F
:10018A0072DF152F70DF08959F9394E0921751F054
:10019A009A95921749F09A95921741F09A95921763
:1001AA0039F008C0482F06C0472F04C0462F02C0A6
:1001BA00452F00C09F9108959F9394E0921751F0A4
:1001CA009A95921749F09A95921741F09A95921733
:1001DA0039F008C0CFDF06C0C3DF04C0B7DF02C0F2
:1001EA00ABDF00C09F9108950F9304E0021751F00E
:1001FA000A95021749F00A95021741F00A95021763
:10020A0039F008C036D006C025D004C014D002C0C8
:10021A0003D000C00F9108959F93182F24DF172F42
:10022A0022DF162F20DF9FEF5927532B5927152F2F
:10023A001ADF9F9108959F93182F15DF172F13DF49
:10024A009FEF6927632B6927162F0DDF152F0BDF09
:10025A009F9108959F93182F06DF9FEF7927732B9D
:10026A007927172F00DF162FFEDE152FFCDE9F9150
:10027A0008959F939FEF8927832B8927182FF3DEF1
:10028A00172FF1DE162FEFDE152FEDDE9F91089561
:10029A000F9304E0021751F00A95021749F00A95E4
:1002AA00021741F00A95021739F008C027D006C094
:1002BA001BD004C00FD002C003D000C00F91089514
:1002CA00182FD1DE172FCFDE162FCDDE532B152F89
:1002DA00CADE0895182FC7DE172FC5DE632B162F27
:1002EA00C2DE152FC0DE0895182FBDDE732B172F1F
:1002FA00BADE162FB8DE152FB6DE0895832B182F17
:10030A00B2DE172FB0DE162FAEDE152FACDE089543
:10031A000F9304E0021751F00A95021749F00A9563
:10032A00021741F00A95021739F008C030D006C00A
:10033A0021D004C012D002C003D000C00F9108958A
:10034A009F93182F90DE172F8EDE162F8CDE932F99
:10035A005927152F88DE9F9108959F93182F83DEC2
:10036A00172F81DE932F6927162F7DDE152F7BDE4F
:10037A009F9108959F93182F76DE932F7927172F31
:10038A0072DE162F70DE152F6EDE9F9108959F93F1
:10039A00932F8927182F67DE172F65DE162F63DE46
:1003AA00152F61DE9F910895243011F421E001C0D8
:1003BA0023950895213011F424E001C02A95089567
:1003CA001F938FEF7FEF6FEF5FEF182F4CDE172F22
:1003DA004ADE162F48DE152F46DE1F9108951F9319
:1003EA0080E070E060E050E0182F3DDE172F3BDE22
:1003FA00162F39DE152F37DE1F9108951F939F930D
:10040A009FEF8927792769275927182F2CDE172F5D
:10041A002ADE162F28DE152F26DE9F911F910895BA
:10042A00AA27CFEEB8B3B06FBC23B8BB0000000058
:10043A00859B0CC0869B09C0879B06C0AD5FCF37E2
:10044A0039F00894CC1FEECFA395A395A39501C0CC
:10045A00AA270A2F08951F930F93112705EF00006B
:10046A0000000000000000000A95C9F71A95B1F7CC
:10047A000F911F910895EFDFEEDFEDDFECDFEBDF89
:02048A000895D3
:00000001FF
